:020000040800F2
:1000000000800120D9140008F9070008FB07000848
:10001000FD070008FF0700080108000800000000B5
:1000200000000000000000000000000003080008BD
:10003000050800080000000007080008090800087B
:100040002915000829150008291500082915000898
:100050002915000829150008291500082915000888
:100060002915000829150008291500082915000878
:100070002915000829150008291500082915000868
:10008000291500082915000829150008000000009E
:10009000000000000000000000000000291500081A
:1000A0002915000829150008291500082915000838
:1000B0002915000829150008291500082915000828
:1000C0002915000829150008291500082915000818
:1000D000291500082915000829150008000000004E
:1000E000291500082915000829150008000000003E
:1000F00000000000000000000000000029150008BA
:10010000000000002915000829150008291500081D
:1001100000000000000000000000000000000000DF
:1001200029150008291500082915000829150008B7
:100130002915000800000000000000000000000079
:100140000000000000000000000000002915000869
:100150002915000829150008291500082915000887
:100160002915000829150008000000000000000003
:10017000000000000000000000000000000000007F
:100180000000000029150008000000000000000029
:040190002915000825
:10019400044B05481B1A062B02D9044B03B118471C
:1001A400704700BF0F0000200C000020000000007A
:1001B40005490648091A891001EBD171491002D08A
:1001C400034B03B1184770470C0000200C000020BB
:1001D4000000000010B5064C237843B9FFF7D8FFA0
:1001E400044B13B10448AFF300800123237010BD06
:1001F4000C000020000000002C15000808B5084B76
:100204001BB108490848AFF300800848036813B9D4
:10021400BDE80840CCE7064B002BF9D09847F7E738
:1002240000000000100000202C1500080C00002025
:100234000000000070B50F4E0F4D761BB61018BFAE
:10024400002405D0013455F8043B9847A642F9D15F
:100254000A4E0B4D761B01F067F9B61018BF002447
:1002640006D0013455F8043B9847A642F9D170BD35
:1002740070BD00BF64150008641500086815000807
:100284006415000870B4860746D0541E002A41D075
:10029400CAB2034602E014F1FF343BD303F8012B46
:1002A4009D07F8D1032C2ED9CDB245EA05250F2C94
:1002B40045EA054519D903F110022646103E0F2ED2
:1002C40042F8105C42F80C5C42F8085C42F8045CAA
:1002D40002F11002F2D8A4F1100222F00F0204F08D
:1002E4000F041032032C13440DD91E462246043A3F
:1002F400032A46F8045BFAD8221F22F003020432D0
:10030400134404F003042CB1C9B21C4403F8011BC8
:100314009C42FBD170BC704714460346C2E700BF41
:1003240053B94AB9002908BF00281CBF4FF0FF3158
:100334004FF0FF3000F07AB9ADF1080C6DE904CE4E
:1003440000F006F8DDF804E0DDE9022304B07047AC
:100354002DE9F0478C460D460446089E002B51D1EA
:100364008A4217466DD9B2FA82FEBEF1000F0BD055
:10037400CEF1200C01FA0EF520FA0CFC02FA0EF76D
:100384004CEA050C00FA0EF44FEA174A250CBCFBA4
:10039400FAF81FFA87F90AFB18CC45EA0C4508FB62
:1003A40009F3AB420AD9ED1908F1FF3280F0238139
:1003B400AB4240F22081A8F102083D44ED1AA4B2F8
:1003C400B5FBFAF00AFB105544EA054400FB09F9B1
:1003D400A14509D9E41900F1FF3380F00A81A14550
:1003E40040F2078102383C44A4EB090440EA084087
:1003F4000021002E61D024FA0EF4002334607360CF
:10040400BDE8F0878B4207D9002E54D0002186E83E
:1004140021000846BDE8F087B3FA83F1002940F0D3
:100424008E80AB4202D3824200F2FA80841A65EBDA
:1004340003050120AC46002E3FD086E81010BDE82D
:10044400F08712B90127B7FBF2F7B7FA87FEBEF1BE
:10045400000F34D1EB1B3A0C1FFA87FC0121B3FBCC
:10046400F2F8250C02FB183345EA03450CFB08F3AC
:10047400AB4207D9ED1908F1FF3002D2AB4200F2CA
:10048400D1808046ED1AA3B2B5FBF2F002FB105501
:1004940043EA05440CFB00FCA44507D9E41900F128
:1004A400FF3302D2A44500F2B8801846A4EB0C0432
:1004B40040EA08409DE731463046BDE8F087CEF17A
:1004C400200405FA0EF307FA0EF720FA04F83A0CA2
:1004D40025FA04F448EA0308B4FBF2F14FEA18459C
:1004E40002FB11441FFA87FC45EA044501FB0CF3A7
:1004F400AB4200FA0EF409D9ED1901F1FF3080F096
:100504008A80AB4240F2878002393D44EB1A1FFADD
:1005140088F5B3FBF2F002FB103345EA034500FB18
:100524000CF3AB4207D9ED1900F1FF386FD2AB429F
:100534006DD902383D44EB1A40EA01418FE7C1F11D
:10054400200722FA07F88B4005FA01F448EA03036E
:1005540020FA07FE4FEA134CFD404EEA040EB5FBA9
:10056400FCF94FEA1E440CFB19551FFA83F844EAC0
:10057400054509FB08F4AC4202FA01F200FA01FA5B
:1005840008D9ED1809F1FF3043D2AC4241D9A9F1A1
:1005940002091D442D1B1FFA8EFEB5FBFCF00CFB5B
:1005A40010554EEA054400FB08F8A04507D9E418A5
:1005B40000F1FF3529D2A04527D902381C4440EA6E
:1005C4000940A4EB0804A0FB02894C45C6464D46ED
:1005D40015D312D056B1BAEB0E0364EB050404FA3A
:1005E40007F7CB401F43CC40376074600021BDE85F
:1005F400F0871846F8E69046E0E6C245EAD2B8EB42
:10060400020E69EB03050138E4E72846D7E74046C4
:1006140091E78146BEE7014678E702383C4445E766
:10062400084608E7A8F102083D442BE7704700BFDD
:1006340030B58BB00024059406940794089409946B
:100644000194224B1A6B42F004021A631A6B02F0F3
:1006540004020192019A02941A6B42F080021A6316
:100664001A6B02F080020292029A03941A6B42F00F
:1006740001021A631A6B02F001020392039A0494B2
:100684001A6B42F002021A631B6B03F00203049319
:10069400049B0F4D22462021284600F03EFE4FF4D5
:1006A400005305930B4B0693079405A90A4800F0E1
:1006B40053FD20230593012306930794089405A969
:1006C400284600F049FD0BB030BD00BF00380240A1
:1006D40000000240000021100008024008B508484C
:1006E400084B03604FF4E133436000238360C3602D
:1006F40003610C2242618361C36100F0C7F908BD44
:10070400280000200044004030B595B0302200217C
:1007140008A8FFF7B7FD00240394049405940694F5
:10072400079401941B4B1A6C42F080521A641B6CA0
:1007340003F080530193019B0294174A136823F436
:10074400404343F400431360136803F440430293AB
:10075400029B0225089501230B9310230C930E95FD
:100764000F9410934FF4A873119304231293072347
:10077400139308A800F0BAF90F2303930495059482
:100784004FF4805306930794294603A800F00EFC07
:1007940015B030BD003802400070004008B500F0CC
:1007A4004BFEFFF7B1FFFFF743FFFFF797FF04E0AE
:1007B400002220210D4800F0B0FD4FF400510C48F8
:1007C40000F0A4FD0128F3D0084C2021204600F0BD
:1007D400AAFD4FF4FA7000F05BFE2021204600F0E1
:1007E400A2FD4FF4FA7000F053FEE6E70000024069
:1007F400000802407047FEE7FEE7FEE7FEE77047A9
:100804007047704708B500F031FE08BD00B583B0ED
:10081400002100910C4B5A6C42F480425A645A6C89
:1008240002F480420092009A01911A6C42F08052C4
:100834001A641B6C03F080530193019B072000F0A2
:100844007BFD03B05DF804FB0038024000B589B0BD
:100854000023039304930593069307930268144BB0
:100864009A4202D009B05DF804FB0021019103F51E
:10087400FA331A6C42F400321A641A6C02F400322D
:100884000192019A02911A6B42F001021A631B6BE6
:1008940003F001030293029B0C23039302230493AA
:1008A4000723079303A9034800F056FCDAE700BFC7
:1008B4000044004000000240F8B504460268136991
:1008C40023F44053C1680B431361836802691343E3
:1008D40042691343C26913430168CA6822F4164289
:1008E40022F00C021343CB600268536923F4407373
:1008F40081690B435361C369B3F5004F34D0036876
:10090400604A934200F0928002F58062934200F0C4
:100914008D8000F001FC25680021061841EB0107D9
:1009240036184F41FB0043EA5673F20016461F4641
:1009340063689A009B0F80197941FFF7F1FC524CD0
:10094400A4FB00325109642202FB11021301323369
:10095400A4FB03235B0903F0F00202EB011203F092
:100964000F031344AB60F8BD0368464A934230D08A
:1009740002F5806293422CD000F0CEFB2568002162
:10098400061841EB010736184F41FB0043EA567342
:10099400F20016461F466268002392185B418019D4
:1009A4007941FFF7BDFC384CA4FB003251096422A5
:1009B40002FB1102D3003233A4FB03235B095A0068
:1009C40002F4F87202EB011203F007031344AB6064
:1009D400F8BD00F0B1FB25680021061841EB0107C2
:1009E40036184F41FB0043EA5673F20016461F4681
:1009F4006268002392185B4180197941FFF790FCEB
:100A0400214CA4FB00325109642202FB1102D300E1
:100A14003233A4FB03235B095A0002F4F87202EB9D
:100A2400011203F007031344AB60F8BD00F084FB2C
:100A340025680021061841EB010736184F41FB00D9
:100A440043EA5673F20016461F4663689A009B0FEA
:100A540080197941FFF764FC0B4CA4FB0032510967
:100A6400642202FB110213013233A4FB03235B094A
:100A740003F0F00202EB011203F00F031344AB6026
:100A8400F8BD00BF001001401F85EB5158B310B5ED
:100A9400044690F839300BB3242384F839302268A3
:100AA400D36823F40053D3602046FFF705FF226880
:100AB400136923F4904313612268536923F02A03D2
:100AC40053612268D36843F40053D3600020E06389
:100AD400202384F8393084F83A3010BD80F8383057
:100AE400FFF7B4FED8E7012070470000002800F0AB
:100AF400E48170B582B00446036813F0010F3BD063
:100B0400A74B9B6803F00C03042B2CD0A44B9B68CD
:100B140003F00C03082B21D06368B3F5803F4FD05A
:100B2400B3F5A02F52D09E4B1A6822F480321A607B
:100B34001A6822F480221A606368002B50D000F0F7
:100B4400A1FC0546964B1B6813F4003F14D100F03A
:100B540099FC401B6428F5D90320B3E1904B5B68F2
:100B640013F4800FD8D08E4B1B6813F4003F03D0CE
:100B74006368002B00F0A381236813F0020F55D0A3
:100B8400874B9B6813F00C0F3ED0854B9B6803F09A
:100B94000C03082B33D0E368002B68D00122814B6F
:100BA4001A6000F06FFC05467D4B1B6813F0020FC2
:100BB40054D100F067FC401B0228F5D9032081E1E1
:100BC400774A136843F480331360B5E7744B1A68AB
:100BD40042F480221A601A6842F480321A60ABE749
:100BE40000F050FC05466E4B1B6813F4003FC3D065
:100BF40000F048FC401B6428F5D9032062E1684BEF
:100C04005B6813F4800FC6D1654B1B6813F0020FA9
:100C140004D0E368012B01D0012053E1604A13683A
:100C240023F0F803216943EAC1031360236813F036
:100C3400080F40D0636963B301225B4B1A6000F074
:100C440021FC0546564B5B6F13F0020F33D100F0C5
:100C540019FC401B0228F5D9032033E1504A1368DC
:100C640023F0F803216943EAC1031360DEE700229D
:100C74004C4B1A6000F006FC0546494B1B6813F008
:100C8400020FD3D000F0FEFB401B0228F5D903204D
:100C940018E10022444B1A6000F0F4FB0546404B77
:100CA4005B6F13F0020F06D000F0ECFB401B022830
:100CB400F5D9032006E1236813F0040F79D0384BEB
:100CC4001B6C13F0805F33D100230193344B1A6CF7
:100CD40042F080521A641B6C03F080530193019B11
:100CE4000125324B1B6813F4807F23D0A368012BAA
:100CF40034D0052B38D02A4B1A6F22F001021A6720
:100D04001A6F22F004021A67A368002B36D000F091
:100D1400B9FB0646224B1B6F13F0020F48D100F0BB
:100D2400B1FB801B41F288339842F3D90320C9E018
:100D34000025D6E71D4A136843F48073136000F05E
:100D4400A1FB0646194B1B6813F4807FCED100F03B
:100D540099FB801B0228F5D90320B3E0104A136FD6
:100D640043F001031367CFE70D4B1A6F42F00402FF
:100D74001A671A6F42F001021A67C5E700F082FB96
:100D84000646074B1B6F13F0020F11D000F07AFBDD
:100D9400801B41F288339842F3D9032092E000BFCC
:100DA4000038024000004742800E47420070004075
:100DB400EDB9A369002B00F08480454A926802F0E3
:100DC4000C02082A51D0022B17D00022414B1A6082
:100DD40000F058FB04463E4B1B6813F0007F42D0E2
:100DE40000F050FB001B0228F5D903206AE0384AC2
:100DF400136C23F080531364DBE70022354B1A6035
:100E040000F040FB0546324B1B6813F0007F06D010
:100E140000F038FB401B0228F5D9032052E0E369B7
:100E2400226A1343626A43EA8213A26A5208013AAD
:100E340043EA0243E26A43EA0263254A5360012219
:100E4400244B1A6000F01EFB0446214B1B6813F070
:100E5400007F06D100F016FB001B0228F5D9032001
:100E640030E000202EE000202CE0012B2CD0184B89
:100E74005B6803F48001E269914201D0012021E022
:100E840003F03F02216A8A4201D001201AE0616A1C
:100E940047F6C0721A408A4201D0012012E003F4DE
:100EA4004032A16A8A4201D001200BE003F0706352
:100EB400E26A93420AD0012004E001207047012035
:100EC40000E0002002B070BD0120FBE70020F9E73C
:100ED4000038024060004742F8B5314B9B6803F08C
:100EE4000C03042B59D0082B01D02E48F8BD2C4BF1
:100EF4005A6802F03F025B6813F4800F2AD0284B33
:100F04005B68C3F388131E4600275C010025E41ABE
:100F140065EB0705A90141EA9461A001001B61EB9F
:100F24000501CB0043EA5073C400A01943EB070149
:100F34004B0243EAD0534402204619460023FFF7EC
:100F4400EFF9174B5B68C3F3014301335B00B0FB5C
:100F5400F3F0F8BD124B5B68C3F388131E460027F9
:100F64005C010025E41A65EB0705A90141EA9461D7
:100F7400A001001B61EB0501CB0043EA5073C400E0
:100F8400A01943EB07018B0243EA905384022046E5
:100F940019460023FFF7C4F9D3E70348F8BD00BF9F
:100FA400003802400024F40000127A00002800F007
:100FB4009E8070B50446504B1B6803F00F038B42B0
:100FC40009D2CBB24C4A1370136803F00F03994251
:100FD40001D0012070BD236813F0020F17D013F065
:100FE400040F04D0454A936843F4E05393602368A4
:100FF40013F0080F04D0414A936843F460439360AC
:101004003E4A936823F0F003A068034393600D46BF
:10101400236813F0010F32D06368012B21D09A1E8C
:10102400012A25D9354A126812F0020F61D03349DA
:101034008A6822F0030213438B6000F023FA064609
:101044002E4B9B6803F00C036268B3EB820F16D03F
:1010540000F018FA801B41F288339842F0D903203B
:1010640070BD264A126812F4003FE0D1012070BD21
:10107400224A126812F0007FD9D1012070BD1E4BA4
:101084001B6803F00F039D4209D2EAB21A4B1A708F
:101094001B6803F00F039D4201D0012070BD23683B
:1010A40013F0040F06D0154A936823F4E053E16863
:1010B4000B439360236813F0080F07D00F4A93681B
:1010C40023F46043216943EAC1039360FFF704FFFB
:1010D4000A4B9B68C3F30313094AD35CD840094BFA
:1010E4001860094B186800F081F9002070BD0120D8
:1010F4007047012070BD00BF003C02400038024030
:10110400441500080800002004000020014B186862
:10111400704700BF0800002008B5FFF7F7FF044B35
:101124009B68C3F38223034AD35CD84008BD00BF45
:10113400003802405415000808B5FFF7E7FF044BD8
:101144009B68C3F34233034AD35CD84008BD00BF55
:10115400003802405415000800230F2B00F2CD8004
:10116400F0B583B095E085684FEA430E032707FA8C
:101174000EF725EA0705CE6806FA0EF635438560B4
:10118400456825EA02024D68C5F300159D402A43CF
:101194004260C6685F000322BA40D24316408D689D
:1011A400BD402E43C6604D68022D00F08480122D90
:1011B40000F0818005682A404D6805F00305BD40B4
:1011C4002A4302604A6812F0805F5FD000220192D5
:1011D4004A4A556C45F480455564526C02F4804289
:1011E4000192019A9D08AE1C454A52F8262003F04C
:1011F4000306B6000F27B74022EA0702414FB84260
:1012040071D007F58067B8426FD007F58067B842A0
:101214006DD007F58067B8426BD007F58067B84298
:101224005FD0072707FA06F632430235344E46F8F4
:101234002520354A1568E24305EA02064F6817F48B
:10124400803F01D044EA05062F4D2E606D6802EA06
:1012540005064F6817F4003F01D044EA05062A4DFD
:101264006E60AD6802EA05064F6817F4801F01D06E
:1012740044EA0506244DAE60ED682A404E6816F433
:10128400001F01D044EA05021F4CE26001330F2B1A
:1012940031D801229A400C681440A242F6D14D681C
:1012A4006E1E012E7FF65FAF112D3FF45CAF122D41
:1012B4007FF46FAF57E74FEAD30E0EF1080E50F8E4
:1012C4002E5003F0070C4FEA8C0C0F2606FA0CF68E
:1012D40025EA06050E6906FA0CF6354340F82E5049
:1012E40068E704279EE700279CE701279AE702277F
:1012F40098E7032796E703B0F0BD70470038024033
:101304000038014000000240003C014003691942DA
:1013140001D1002070470120704712B9090481618E
:10132400704781617047436931EA030301D08161E9
:101334007047090481617047074AD36823F4E06366
:101344001B041B0C000200F4E060184340F0BF6073
:1013540040F40030D060704700ED00E030B4164B2C
:10136400DB68C3F30223C3F10704042C28BF04245D
:101374001D1D062D17D9033B012505FA04F4013C74
:101384002140994005FA03F3013B13401943002817
:101394000BDB0901C9B200F1604000F5614080F83F
:1013A400001330BC70470023E6E700F00F0009018A
:1013B400C9B2024B1954F4E700ED00E014ED00E06B
:1013C4000138B0F1807F0AD2064B5860F021064AFA
:1013D40082F823100020986007221A6070470120C9
:1013E400704700BF10E000E000ED00E010B50446D7
:1013F4000E4B18784FF47A73B3FBF0F30C4A106871
:10140400B0FBF3F0FFF7DCFF68B90F2C01D9012022
:1014140010BD002221464FF0FF30FFF79FFF054B20
:101424001C60002010BD012010BD00BF0000002082
:10143400080000200400002008B50B4B1A6842F491
:1014440000721A601A6842F480621A601A6842F4E0
:1014540080721A600320FFF76FFF0020FFF7C6FFBA
:10146400FFF7D4F9002008BD003C0240034A11688C
:10147400034B1B780B441360704700BF68000020C7
:1014840000000020014B1868704700BF680000206E
:1014940038B50446FFF7F6FF0546B4F1FF3F02D026
:1014A400044B1B781C44FFF7EDFF401B8442FAD821
:1014B40038BD00BF00000020054BD3F8882042F45B
:1014C4007002C3F888204FF000629A60704700BF32
:1014D40000ED00E0DFF834D0002103E00C4B5B5852
:1014E400435004310B480C4B42189A42F6D30B4A32
:1014F40002E0002342F8043B094B9A42F9D3FFF778
:10150400DBFFFEF797FEFFF749F9704700800120E3
:101514006C150008000000200C0000200C000020C6
:101524006C000020FEE70000F8B500BFF8BC08BC62
:101534009E467047F8B500BFF8BC08BC9E4670478D
:10154400000000000000000001020304060708096F
:08155400000000000102030485
:08155C00F8EDFF7F0100000023
:041564000102000878
:04156800D90100089D
:0C156C0001000000100000000024F4004A
:04000005080014D902
:00000001FF
