:020000040800F2
:1000000000800120352200087509000877090008E2
:10001000790900087B0900087D090008000000003C
:100020000000000000000000000000007F09000840
:100030008109000800000000830900088509000804
:1000400085220008852200088522000885220008F4
:1000500085220008852200088522000885220008E4
:1000600085220008852200088522000885220008D4
:1000700085220008852200088522000885220008C4
:100080008522000885220008852200080000000063
:1000900000000000000000000000000085220008B1
:1000A0008522000885220008852200088522000894
:1000B0008522000885220008852200088522000884
:1000C0008522000885220008852200088522000874
:1000D0008522000885220008852200080000000013
:1000E0008522000885220008852200080000000003
:1000F0000000000000000000000000008522000851
:1001000000000000852200088522000885220008E2
:1001100000000000000000000000000000000000DF
:100120008522000885220008852200088522000813
:100130008522000800000000000000000000000010
:100140000000000000000000000000008522000800
:1001500085220008852200088522000885220008E3
:100160008522000885220008000000000000000031
:10017000000000000000000000000000000000007F
:1001800000000000852200080000000000000000C0
:0401900085220008BC
:1001C000044B05481B1A062B02D9044B03B11847F0
:1001D000704700BF0F0000200C000020000000004E
:1001E00005490648091A891001EBD171491002D05E
:1001F000034B03B1184770470C0000200C0000208F
:100200000000000010B5064C237843B9FFF7D8FF73
:10021000044B13B10448AFF300800123237010BDD9
:100220000C000020000000008822000808B5084BE0
:100230001BB108490848AFF300800848036813B9A8
:10024000BDE80840CCE7064B002BF9D09847F7E70C
:100250000000000010000020882200080C00002090
:100260000000000070B50F4E0F4D761BB61018BF82
:10027000002405D0013455F8043B9847A642F9D133
:100280000A4E0B4D761B01F0FFFFB61018BF00247D
:1002900006D0013455F8043B9847A642F9D170BD09
:1002A00070BD00BFC0220008C0220008C4220008A0
:1002B000C022000870B4860746D0541E002A41D0E0
:1002C000CAB2034602E014F1FF343BD303F8012B1A
:1002D0009D07F8D1032C2ED9CDB245EA05250F2C68
:1002E00045EA054519D903F110022646103E0F2EA6
:1002F00042F8105C42F80C5C42F8085C42F8045C7E
:1003000002F11002F2D8A4F1100222F00F0204F060
:100310000F041032032C13440DD91E462246043A12
:10032000032A46F8045BFAD8221F22F003020432A3
:10033000134404F003042CB1C9B21C4403F8011B9C
:100340009C42FBD170BC704714460346C2E700BF15
:10035000000000000000000000000000000000009D
:10036000000000000000000000000000000000008D
:10037000000000000000000000000000000000007D
:1003800090F800F06DE9024520F007016FF0000CD5
:1003900010F0070491F820F040F049804FF000047D
:1003A0006FF00700D1E9002391F840F000F1080058
:1003B00082FA4CF2A4FA8CF283FA4CF3A2FA8CF390
:1003C0004BBBD1E9022382FA4CF200F10800A4FAF7
:1003D0008CF283FA4CF3A2FA8CF3E3B9D1E904234B
:1003E00082FA4CF200F10800A4FA8CF283FA4CF382
:1003F000A2FA8CF37BB9D1E9062301F1200182FA3C
:100400004CF200F10800A4FA8CF283FA4CF3A2FA41
:100410008CF3002BC6D0002A04BF04301A4612BA4F
:10042000B2FA82F2FDE8024500EBD2007047D1E952
:10043000002304F00305C4F100004FEAC50514F0E1
:10044000040F91F840F00CFA05F562EA05021CBFB2
:1004500063EA050362464FF00004A9E753B94AB9BD
:10046000002908BF00281CBF4FF0FF314FF0FF30BC
:1004700000F07AB9ADF1080C6DE904CE00F006F891
:10048000DDF804E0DDE9022304B070472DE9F04710
:100490008C460D460446089E002B51D18A421746D1
:1004A0006DD9B2FA82FEBEF1000F0BD0CEF1200C56
:1004B00001FA0EF520FA0CFC02FA0EF74CEA050CD4
:1004C00000FA0EF44FEA174A250CBCFBFAF81FFAA3
:1004D00087F90AFB18CC45EA0C4508FB09F3AB4247
:1004E0000AD9ED1908F1FF3280F02381AB4240F2C6
:1004F0002081A8F102083D44ED1AA4B2B5FBFAF040
:100500000AFB105544EA054400FB09F9A14509D945
:10051000E41900F1FF3380F00A81A14540F2078120
:1005200002383C44A4EB090440EA08400021002EB4
:1005300061D024FA0EF4002334607360BDE8F087C4
:100540008B4207D9002E54D0002186E821000846AE
:10055000BDE8F087B3FA83F1002940F08E80AB420A
:1005600002D3824200F2FA80841A65EB030501206F
:10057000AC46002E3FD086E81010BDE8F08712B9D7
:100580000127B7FBF2F7B7FA87FEBEF1000F34D1AF
:10059000EB1B3A0C1FFA87FC0121B3FBF2F8250C88
:1005A00002FB183345EA03450CFB08F3AB4207D9BD
:1005B000ED1908F1FF3002D2AB4200F2D180804643
:1005C000ED1AA3B2B5FBF2F002FB105543EA054465
:1005D0000CFB00FCA44507D9E41900F1FF3302D25B
:1005E000A44500F2B8801846A4EB0C0440EA084089
:1005F0009DE731463046BDE8F087CEF1200405FA8C
:100600000EF307FA0EF720FA04F83A0C25FA04F470
:1006100048EA0308B4FBF2F14FEA184502FB114423
:100620001FFA87FC45EA044501FB0CF3AB4200FAD4
:100630000EF409D9ED1901F1FF3080F08A80AB4248
:1006400040F2878002393D44EB1A1FFA88F5B3FB6C
:10065000F2F002FB103345EA034500FB0CF3AB421A
:1006600007D9ED1900F1FF386FD2AB426DD90238CE
:100670003D44EB1A40EA01418FE7C1F1200722FA1D
:1006800007F88B4005FA01F448EA030320FA07FE55
:100690004FEA134CFD404EEA040EB5FBFCF94FEA5D
:1006A0001E440CFB19551FFA83F844EA054509FB63
:1006B00008F4AC4202FA01F200FA01FA08D9ED1886
:1006C00009F1FF3043D2AC4241D9A9F102091D44DE
:1006D0002D1B1FFA8EFEB5FBFCF00CFB10554EEAED
:1006E000054400FB08F8A04507D9E41800F1FF35E0
:1006F00029D2A04527D902381C4440EA0940A4EB7E
:100700000804A0FB02894C45C6464D4615D312D0BD
:1007100056B1BAEB0E0364EB050404FA07F7CB40BD
:100720001F43CC40376074600021BDE8F087184655
:10073000F8E69046E0E6C245EAD2B8EB020E69EB75
:1007400003050138E4E72846D7E7404691E78146AC
:10075000BEE7014678E702383C4445E7084608E72B
:10076000A8F102083D442BE7704700BF30B58BB0BD
:100770000024059406940794089409940194224B4C
:100780001A6B42F004021A631A6B02F0040201921F
:10079000019A02941A6B42F080021A631A6B02F0FB
:1007A00080020292029A03941A6B42F001021A63C9
:1007B0001A6B02F001020392039A04941A6B42F03E
:1007C00002021A631B6B03F002030493049B0F4D98
:1007D00022462021284601F09BFA4FF4005305934E
:1007E0000B4B0693079405A90A4801F0B7F920239B
:1007F0000593012306930794089405A9284601F060
:10080000ADF90BB030BD00BF00380240000002401F
:10081000000021100008024008B50948094B036098
:10082000094B4360002383608022C2604FF4804202
:10083000026143618361C361036200F057FB08BD3D
:100840002800002000540040A086010008B5084898
:10085000084B03604FF4E133436000238360C360BF
:1008600003610C2242618361C36101F033FC08BD66
:100870007C0000200044004030B595B030220021BB
:1008800008A8FFF717FD0024039404940594069428
:10089000079401941B4B1A6C42F080521A641B6C33
:1008A00003F080530193019B0294174A136823F4C9
:1008B000404343F400431360136803F4404302933E
:1008C000029B0225089501230B9310230C930E9590
:1008D0000F9410934FF4A8731193042312930723DA
:1008E000139308A800F004FE0F23039304950594C6
:1008F0004FF4805306930794294603A801F058F853
:1009000015B030BD0038024000700040F0B587B02F
:1009100001F084FAFFF7B0FFFFF728FFFFF77CFF35
:10092000FFF794FF022706AC04F80C7D0F4E4FF042
:10093000FF350095012322468221304600F0B0FBAE
:1009400000953B4622468221304600F063FC20465B
:10095000FFF716FD2B4682B22146054801F0E9FB60
:100960004FF4FA7001F086FADCE700BF280000209F
:100970007C0000207047FEE7FEE7FEE7FEE77047D9
:100980007047704708B501F063FA08BD00B583B041
:10099000002100910C4B5A6C42F480425A645A6C0C
:1009A00002F480420092009A01911A6C42F0805247
:1009B0001A641B6C03F080530193019B072001F024
:1009C000ADF903B05DF804FB0038024030B589B0E2
:1009D0000023039304930593069307930268154B32
:1009E0009A4201D009B030BD00250195124C236B0D
:1009F00043F002032363236B03F002030193019B83
:100A00004FF44073039312230493012305930323AC
:100A100006930423079303A9084801F09FF8029561
:100A2000236C43F400132364236C03F40013029338
:100A3000029BD7E700540040003802400004024007
:100A400000B589B00023039304930593069307939D
:100A50000268144B9A4202D009B05DF804FB0021F1
:100A6000019103F5FA331A6C42F400321A641A6CDD
:100A700002F400320192019A02911A6B42F00102D3
:100A80001A631B6B03F001030293029B0C23039375
:100A9000022304930723079303A9034801F05EF898
:100AA000DAE700BF004400400000024003685A69D2
:100AB00012F4806F11D06FF480625A6100230363D7
:100AC000202280F83D2080F83E30026C42F0040283
:100AD000026480F83C300120704700207047F8B570
:100AE00006460C4617461D4622E001F0BDF9069B5E
:100AF000C01A854200D3DDB900233363202286F873
:100B00003D2086F83E30326C42F02002326486F896
:100B10003C300120F8BD33685B6924EA03039BB2D3
:100B2000B3FA83F35B09BB420FD1B5F1FF3FDCD1D0
:100B3000C4F30743012BEED033689B6924EA030317
:100B40009BB2B3FA83F35B09EDE70020F8BDF8B57B
:100B500004460D4616461F463CE01A6842F40072F1
:100B60001A6023686FF480625A6100232363202295
:100B700084F83D2084F83E30226C42F00402226466
:100B800084F83C300120F8BD01F06EF9C01B8642AC
:100B900000D3FEB900232363202284F83D2084F88B
:100BA0003E30226C42F02002226484F83C30012066
:100BB000F8BD23685B6925EA03039BB2003318BFC5
:100BC0000123A3B123685A6912F4806FC5D1B6F12D
:100BD000FF3FD9D1C5F30743012BEAD023689B69B6
:100BE00025EA03039BB2003318BF0123E9E7002085
:100BF000F8BD0000F0B583B004460F4615461E460A
:100C0000C36A082B0DD0012B0BD013F5803F08D001
:100C1000036B122B0AD10268136843F480731360CC
:100C200004E02268136843F48073136000962B4637
:100C300000224FF001112046FFF751FF58B1236801
:100C40001B6813F4807F2BD04FF4007323640323BD
:100C5000184603B0F0BD2369B3F5804F11D0226868
:100C6000FB1103F0060343F0F003136133462A46F9
:100C70000D492046FFF76BFFA0B92368FFB21F6143
:100C800003E0236807F0FE071F6133462A46074941
:100C90002046FFF75CFF03460028D9D00123D7E7A1
:100CA0000323D5E70123D3E7080001000200010078
:100CB0002DE9F04184B004460D4616461F46C26A2F
:100CC00001680B6843F480630B60082A0DD0012A89
:100CD0000BD012F5803F08D0036B112B0AD10268AC
:100CE000136843F48073136004E02268136843F4CC
:100CF000807313600097334600224FF001112046A5
:100D0000FFF7EDFE60B123681B6813F4807F5BD0B2
:100D10004FF4007323640323184604B0BDE8F08148
:100D20002369B3F5804F10D023684FEAE51808F027
:100D3000060848F0F0021A613B4632462449204634
:100D4000FFF705FF88B10123E6E7236845F00105B9
:100D5000EDB21D613B4632461E492046FFF7F7FEC5
:100D600003460028D8D00123D6E72368EDB21D61E1
:100D70003B46324617492046FFF7E9FE08B10123FA
:100D8000CAE7002203922368596903919969039184
:100D90000399196841F480711960009733464FF048
:100DA00001112046FFF79BFE48B123681B6813F42E
:100DB000807F0BD04FF4007323640323ACE72268D9
:100DC00048F0F1031361C5E70323A5E70323A3E775
:100DD000080001000200010070B504460D461646E9
:100DE00023685B6913F0800F1CD12046FFF75EFE7D
:100DF000D0B9B5F1FF3FF3D001F036F8801B854242
:100E000001D3002DECD100232363202284F83D2060
:100E100084F83E30226C42F02002226484F83C3098
:100E2000012070BD002070BD012070BD70B504466A
:100E30000D46164623685B6913F0040F1CD120464B
:100E4000FFF734FED0B9B5F1FF3FF3D001F00CF855
:100E5000801B854201D3002DECD100232363202287
:100E600084F83D2084F83E30226C42F02002226457
:100E700084F83C30012070BD002070BD012070BDA1
:100E800070B505460C4616462B685A6912F0400F9D
:100E900029D15A6912F0100F15D100F0E5FF801B1F
:100EA000A04201D8002CEFD100232B63202285F82B
:100EB0003D2085F83E302A6C42F020022A6485F8F5
:100EC0003C30012070BD6FF010025A6100232B638B
:100ED000202285F83D2085F83E302A6C2A6485F86A
:100EE0003C30012070BD002070BD0000002800F0E3
:100EF000C880F8B5044690F83D30002B75D0242307
:100F000084F83D302268136823F0010313602268DF
:100F1000136843F4004313602268136823F400430A
:100F2000136000F0FBFD6268584B9A4262D8584B40
:100F300098428CBF00230123002B40F0A480554B26
:100F4000A3FB00239A0C21684B6823F03F03134353
:100F50004B602568296A21F03F0166684B4B9E4231
:100F60004ED8531C0B432B622268D16921F44F41A8
:100F700021F0FF016368454DAB424BD801385B005F
:100F8000B0FBF3F30133C3F30B03042B38BF04238B
:100F90000B43D36121680B6823F0C003E269206A28
:100FA000024313430B6021688B6823F4034323F04F
:100FB000FF032269E068024313438B602168CB681A
:100FC00023F0FF036269A06902431343CB602268E8
:100FD000136843F00103136000202064202384F889
:100FE0003D30206384F83E00F8BD80F83C30FFF7C8
:100FF000EDFC84E7284B98428CBF002301239BE73C
:101000004FF4967303FB02F3244AA2FB03239B09CC
:101010000133A7E7A668BEB9451E03EB4307B5FB3E
:10102000F7F50135C5F30B05B5FA85F56D0935BB47
:10103000C6B9013803EB4303B0FBF3F30133C3F349
:101040000B0343F40043A3E7451E03EB830707EBC1
:101050008707B5FBF7F50135C5F30B05B5FA85F53F
:101060006D09E4E7013803EB830303EB8303B0FB73
:10107000F3F30133C3F30B0343F4404388E7012345
:1010800086E7012070470120F8BD00BFA08601005F
:101090007F841E0083DE1B43FF083D00D34D62109A
:1010A0002DE9F04184B004460D4690461F4600F0FD
:1010B000DBFE94F83D30DBB2202B04D0022528461D
:1010C00004B0BDE8F08106460090192301224F4983
:1010D0002046FFF704FD08B10225F0E794F83C3004
:1010E000012B00F08E80012384F83C3023681A68BD
:1010F00012F0010F03D11A6842F001021A6022684F
:10110000136823F400631360212384F83D30102317
:1011100084F83E3000232364C4F824806785638DFF
:1011200023853B4BE36233460A9A29462046FFF764
:1011300061FD0546002866D10023039323685A69A0
:1011400003929B690393039B12E0236C042B01D051
:101150000125B4E72268136843F400731360012586
:10116000ADE732460A992046FFF760FE00282ED1EF
:10117000238D002B37D032460A992046FFF72CFEEC
:101180000028E2D12368626A12781A61616A4B1CF6
:101190006362638D9BB2013B9BB26385238D013BF0
:1011A0009BB223852268506910F0040FD9D0002B20
:1011B000D7D04B781361636A01336362638D9BB24E
:1011C000013B9BB26385238D013B2385C9E7236CDB
:1011D000042B01D0012572E72268136843F40073E1
:1011E000136001256BE72268136843F400731360F2
:1011F000202384F83D30002384F83E3084F83C30CE
:101200005DE702255BE7012559E700BF02001000FA
:101210000000FFFF2DE9F04186B004460D469046E0
:101220001F4600F021FE94F83D30DBB2202B04D0A5
:101230000225284606B0BDE8F08106460090192335
:10124000012288492046FFF74AFC08B10225F0E751
:1012500094F83C30012B00F03D81012384F83C30B0
:1012600023681A6812F0010F03D11A6842F00102D4
:101270001A602268136823F400631360222384F841
:101280003D30102384F83E3000232364C4F82480CA
:101290006785638D2385744BE36233460C9A294638
:1012A0002046FFF705FD0546002840F01581238DF7
:1012B0005BB9029323685A6902929A690292029A70
:1012C0001A6842F400721A607AE0012B0FD0022BE8
:1012D0001FD02268136843F48063136000230593D2
:1012E00023685A6905929B690593059B68E022680B
:1012F000136823F4806313600023039323685A69FF
:1013000003929A690392039A1A6842F400721A606F
:1013100056E02268136823F4806313602268136820
:1013200043F4006313600023049323685A69049212
:101330009B690493049B43E032460C992046FFF7D7
:101340009FFD002840F0CA80636A226812691A7003
:10135000636A01336362238D013B2385638D9BB2F6
:10136000013B9BB263852BE000960C9B00223F491A
:101370002046FFF7B4FB002840F0B28022681368D3
:1013800043F400731360636A226812691A70626A18
:10139000531C6362238D013B2385638D9BB2013B0C
:1013A0009BB2638523681B695370636A0133636270
:1013B000238D013B2385638D9BB2013B9BB26385EB
:1013C000238D002B7DD0032B52D8012BB4D0022BC0
:1013D000CAD000960C9B002224492046FFF77FFBD1
:1013E00000287FD12268136823F480631360636A46
:1013F000226812691A70636A01336362238D013BAC
:101400002385638D9BB2013B9BB2638500960C9B49
:10141000002216492046FFF762FB002864D12268AB
:10142000136843F400731360636A226812691A70C8
:10143000626A531C6362238D013B2385638D9BB2DB
:10144000013B9BB2638523681B695370636A013358
:101450006362238D013B2385638D9BB2013B9BB26D
:101460006385ADE7020010000000FFFF04000100EB
:1014700032460C992046FFF703FD002836D1636AF7
:10148000226812691A70626A531C6362238D013BE1
:101490002385638D9BB2013B9BB2638523685969A9
:1014A00011F0040F8CD01B695370636A01336362BF
:1014B000238D013B2385638D9BB2013B9BB26385EA
:1014C0007EE7202384F83D30002384F83E3084F802
:1014D0003C30AEE60225ACE60125AAE60125A8E6E9
:1014E0000125A6E60125A4E60125A2E60125A0E640
:1014F000002800F0E48170B582B00446036813F060
:10150000010F3BD0A74B9B6803F00C03042B2CD09E
:10151000A44B9B6803F00C03082B21D06368B3F540
:10152000803F4FD0B3F5A02F52D09E4B1A6822F4C3
:1015300080321A601A6822F480221A606368002BD5
:1015400050D000F091FC0546964B1B6813F4003F09
:1015500014D100F089FC401B6428F5D90320B3E1C5
:10156000904B5B6813F4800FD8D08E4B1B6813F43C
:10157000003F03D06368002B00F0A381236813F0C1
:10158000020F55D0874B9B6813F00C0F3ED0854B54
:101590009B6803F00C03082B33D0E368002B68D062
:1015A0000122814B1A6000F05FFC05467D4B1B68F1
:1015B00013F0020F54D100F057FC401B0228F5D95C
:1015C000032081E1774A136843F480331360B5E761
:1015D000744B1A6842F480221A601A6842F480320E
:1015E0001A60ABE700F040FC05466E4B1B6813F435
:1015F000003FC3D000F038FC401B6428F5D903201D
:1016000062E1684B5B6813F4800FC6D1654B1B68C1
:1016100013F0020F04D0E368012B01D0012053E145
:10162000604A136823F0F803216943EAC103136099
:10163000236813F0080F40D0636963B301225B4B4A
:101640001A6000F011FC0546564B5B6F13F0020F59
:1016500033D100F009FC401B0228F5D9032033E107
:10166000504A136823F0F803216943EAC103136069
:10167000DEE700224C4B1A6000F0F6FB0546494BB2
:101680001B6813F0020FD3D000F0EEFB401B0228C2
:10169000F5D9032018E10022444B1A6000F0E4FB66
:1016A0000546404B5B6F13F0020F06D000F0DCFBE9
:1016B000401B0228F5D9032006E1236813F0040F2C
:1016C00079D0384B1B6C13F0805F33D1002301932A
:1016D000344B1A6C42F080521A641B6C03F0805336
:1016E0000193019B0125324B1B6813F4807F23D0AB
:1016F000A368012B34D0052B38D02A4B1A6F22F067
:1017000001021A671A6F22F004021A67A368002BFD
:1017100036D000F0A9FB0646224B1B6F13F0020FD8
:1017200048D100F0A1FB801B41F288339842F3D9E5
:101730000320C9E00025D6E71D4A136843F48073EF
:10174000136000F091FB0646194B1B6813F4807F71
:10175000CED100F089FB801B0228F5D90320B3E02D
:10176000104A136F43F001031367CFE70D4B1A6F55
:1017700042F004021A671A6F42F001021A67C5E7C5
:1017800000F072FB0646074B1B6F13F0020F11D0DF
:1017900000F06AFB801B41F288339842F3D90320A2
:1017A00092E000BF0038024000004742800E4742EE
:1017B00000700040EDB9A369002B00F08480454A19
:1017C000926802F00C02082A51D0022B17D0002296
:1017D000414B1A6000F048FB04463E4B1B6813F077
:1017E000007F42D000F040FB001B0228F5D9032007
:1017F0006AE0384A136C23F080531364DBE700225D
:10180000354B1A6000F030FB0546324B1B6813F075
:10181000007F06D000F028FB401B0228F5D90320EA
:1018200052E0E369226A1343626A43EA8213A26ABE
:101830005208013A43EA0243E26A43EA0263254A54
:1018400053600122244B1A6000F00EFB0446214B2A
:101850001B6813F0007F06D100F006FB001B022876
:10186000F5D9032030E000202EE000202CE0012BF1
:101870002CD0184B5B6803F48001E269914201D0DF
:10188000012021E003F03F02216A8A4201D00120B9
:101890001AE0616A47F6C0721A408A4201D00120FC
:1018A00012E003F44032A16A8A4201D001200BE029
:1018B00003F07063E26A93420AD0012004E0012041
:1018C0007047012000E0002002B070BD0120FBE75E
:1018D0000020F9E70038024060004742F8B5314B7C
:1018E0009B6803F00C03042B59D0082B01D02E4821
:1018F000F8BD2C4B5A6802F03F025B6813F4800F6E
:101900002AD0284B5B68C3F388131E4600275C016E
:101910000025E41A65EB0705A90141EA9461A001DD
:10192000001B61EB0501CB0043EA5073C400A01912
:1019300043EB07014B0243EAD053440220461946C9
:101940000023FEF78BFD174B5B68C3F301430133A4
:101950005B00B0FBF3F0F8BD124B5B68C3F3881378
:101960001E4600275C010025E41A65EB0705A90166
:1019700041EA9461A001001B61EB0501CB0043EA41
:101980005073C400A01943EB07018B0243EA905344
:101990008402204619460023FEF760FDD3E7034882
:1019A000F8BD00BF003802400024F40000127A00A5
:1019B000002800F09E8070B50446504B1B6803F071
:1019C0000F038B4209D2CBB24C4A1370136803F059
:1019D0000F03994201D0012070BD236813F0020F5C
:1019E00017D013F0040F04D0454A936843F4E05332
:1019F0009360236813F0080F04D0414A936843F4BE
:101A0000604393603E4A936823F0F003A068034369
:101A100093600D46236813F0010F32D06368012BE9
:101A200021D09A1E012A25D9354A126812F0020FD8
:101A300061D033498A6822F0030213438B6000F0BF
:101A400013FA06462E4B9B6803F00C036268B3EB57
:101A5000820F16D000F008FA801B41F288339842BA
:101A6000F0D9032070BD264A126812F4003FE0D17D
:101A7000012070BD224A126812F0007FD9D10120E6
:101A800070BD1E4B1B6803F00F039D4209D2EAB2E2
:101A90001A4B1A701B6803F00F039D4201D00120FE
:101AA00070BD236813F0040F06D0154A936823F421
:101AB000E053E1680B439360236813F0080F07D0ED
:101AC0000F4A936823F46043216943EAC10393609A
:101AD000FFF704FF0A4B9B68C3F30313094AD35C67
:101AE000D840094B1860094B186800F071F90020C4
:101AF00070BD01207047012070BD00BF003C024056
:101B000000380240A0220008080000200400002045
:101B1000014B1868704700BF0800002008B5FFF7A8
:101B2000F7FF044B9B68C3F38223034AD35CD8407E
:101B300008BD00BF00380240B022000808B5FFF71A
:101B4000E7FF044B9B68C3F34233034AD35CD8409E
:101B500008BD00BF00380240B022000800230F2B50
:101B600000F2CD80F0B583B095E085684FEA430E72
:101B7000032707FA0EF725EA0705CE6806FA0EF6E0
:101B800035438560456825EA02024D68C5F30015B6
:101B90009D402A434260C6685F000322BA40D24398
:101BA00016408D68BD402E43C6604D68022D00F082
:101BB0008480122D00F0818005682A404D6805F070
:101BC0000305BD402A4302604A6812F0805F5FD07F
:101BD000002201924A4A556C45F480455564526C86
:101BE00002F480420192019A9D08AE1C454A52F8C7
:101BF000262003F00306B6000F27B74022EA0702AB
:101C0000414FB84271D007F58067B8426FD007F5F1
:101C10008067B8426DD007F58067B8426BD007F592
:101C20008067B8425FD0072707FA06F632430235CD
:101C3000344E46F82520354A1568E24305EA020687
:101C40004F6817F4803F01D044EA05062F4D2E60FF
:101C50006D6802EA05064F6817F4003F01D044EAB8
:101C600005062A4D6E60AD6802EA05064F6817F456
:101C7000801F01D044EA0506244DAE60ED682A407D
:101C80004E6816F4001F01D044EA05021F4CE260C2
:101C900001330F2B31D801229A400C681440A24224
:101CA000F6D14D686E1E012E7FF65FAF112D3FF409
:101CB0005CAF122D7FF46FAF57E74FEAD30E0EF1F2
:101CC000080E50F82E5003F0070C4FEA8C0C0F262C
:101CD00006FA0CF625EA06050E6906FA0CF63543F7
:101CE00040F82E5068E704279EE700279CE701276D
:101CF0009AE7022798E7032796E703B0F0BD7047FD
:101D0000003802400038014000000240003C014021
:101D100012B909048161704781617047074AD3682D
:101D200023F4E0631B041B0C000200F4E060184382
:101D300040F0BF6040F40030D060704700ED00E03C
:101D400030B4164BDB68C3F30223C3F10704042C41
:101D500028BF04241D1D062D17D9033B012505FAB4
:101D600004F4013C2140994005FA03F3013B134080
:101D7000194300280BDB0901C9B200F1604000F5EE
:101D8000614080F8001330BC70470023E6E700F0A4
:101D90000F000901C9B2024B1954F4E700ED00E04D
:101DA00014ED00E00138B0F1807F0AD2064B586094
:101DB000F021064A82F823100020986007221A605A
:101DC00070470120704700BF10E000E000ED00E028
:101DD00010B504460E4B18784FF47A73B3FBF0F34A
:101DE0000C4A1068B0FBF3F0FFF7DCFF68B90F2C6A
:101DF00001D9012010BD002221464FF0FF30FFF72E
:101E00009FFF054B1C60002010BD012010BD00BFCE
:101E100000000020080000200400002008B50B4B43
:101E20001A6842F400721A601A6842F480621A60FA
:101E30001A6842F480721A600320FFF76FFF0020D7
:101E4000FFF7C6FFFEF7A2FD002008BD003C0240E0
:101E5000034A1168034B1B780B441360704700BFA3
:101E6000BC00002000000020014B1868704700BF34
:101E7000BC00002038B50446FFF7F6FF0546B4F174
:101E8000FF3F02D0044B1B781C44FFF7EDFF401BC3
:101E90008442FAD838BD00BF00000020F8B50446DF
:101EA0000268136923F44053C1680B4313618368CC
:101EB0000269134342691343C26913430168CA6844
:101EC00022F4164222F00C021343CB6002685369DD
:101ED00023F4407381690B435361C369B3F5004F29
:101EE00034D00368604A934200F0928002F5806229
:101EF000934200F08D80FFF711FE2568002106183F
:101F000041EB010736184F41FB0043EA5673F200DC
:101F100016461F4663689A009B0F80197941FEF7A9
:101F20009DFA524CA4FB00325109642202FB1102BB
:101F300013013233A4FB03235B0903F0F00202EB2D
:101F4000011203F00F031344AB60F8BD0368464A67
:101F5000934230D002F5806293422CD0FFF7DEFD31
:101F600025680021061841EB010736184F41FB0098
:101F700043EA5673F20016461F4662680023921821
:101F80005B4180197941FEF769FA384CA4FB0032B5
:101F90005109642202FB1102D3003233A4FB032354
:101FA0005B095A0002F4F87202EB011203F0070316
:101FB0001344AB60F8BDFFF7C1FD2568002106188A
:101FC00041EB010736184F41FB0043EA5673F2001C
:101FD00016461F466268002392185B4180197941BA
:101FE000FEF73CFA214CA4FB00325109642202FBAB
:101FF0001102D3003233A4FB03235B095A0002F41D
:10200000F87202EB011203F007031344AB60F8BD52
:10201000FFF794FD25680021061841EB01073618EB
:102020004F41FB0043EA5673F20016461F466368B1
:102030009A009B0F80197941FEF710FA0B4CA4FB14
:1020400000325109642202FB110213013233A4FB56
:1020500003235B0903F0F00202EB011203F00F030C
:102060001344AB60F8BD00BF001001401F85EB5169
:102070002DE9F04105460F4616469846069C2B680A
:102080001B6837EA03030CBF01230023B3421ED1B0
:10209000B4F1FF3FF3D02CB1FFF7E6FEA0EB080050
:1020A0008442ECD22A68D36823F4D073D3602A68C0
:1020B000536923F001035361202385F8393085F8F3
:1020C0003A30002385F838300320BDE8F081002045
:1020D000BDE8F08158B310B5044690F839300BB321
:1020E000242384F839302268D36823F40053D36062
:1020F0002046FFF7D3FE2268136923F4904313614F
:102100002268536923F02A0353612268D36843F499
:102110000053D3600020E063202384F8393084F832
:102120003A3010BD80F83830FEF78AFCD8E701203D
:1021300070472DE9F04383B01E4690F83930DBB28A
:10214000202B04D00223184603B0BDE8F0830446D8
:102150000D469046002956D0002A56D090F83830C7
:10216000012B01D10223EEE7012380F838304FF034
:102170000009C0F83C90212380F83930FFF774FE45
:102180000746A4F82480A4F8268084F8389010E04C
:1021900000963B46002280212046FFF769FF002879
:1021A00035D122682B88C3F3080353602369CBB968
:1021B0000235E38C9BB2BBB1E38C9BB2013B9BB27B
:1021C000E384A368B3F5805FE2D000963B4600222B
:1021D00080212046FFF74CFFD8B923682A785A603F
:1021E0000135E6E70135E4E700963B460022402151
:1021F0002046FFF73DFF034608B10323A3E7202253
:1022000084F839209FE701239DE701239BE70323FF
:1022100099E7032397E70000054BD3F8882042F4A1
:102220007002C3F888204FF000629A60704700BFC8
:1022300000ED00E0DFF834D0002103E00C4B5B58E8
:10224000435004310B480C4B42189A42F6D30B4AC8
:1022500002E0002342F8043B094B9A42F9D3FFF70E
:10226000DBFFFDF7FFFFFEF751FB70470080012009
:10227000C8220008000000200C0000200C000020F4
:10228000C0000020FEE70000F8B500BFF8BC08BCA5
:102290009E467047F8B500BFF8BC08BC9E46704724
:1022A0000000000000000000010203040607080906
:0822B00000000000010203041C
:0822B800D4E1FF7F01000000EA
:0422C0002D020008E3
:0422C4000502000807
:0C22C80001000000100000000024F400E1
:040000050800223598
:00000001FF
