:020000040800F2
:1000000000800120CD2900088D1600088F160008F9
:1000100091160008931600089516000800000000CD
:10002000000000000000000000000000971600081B
:1000300099160008000000009B1600089D16000895
:100040001D2A00081D2A00081D2A00081D2A000874
:100050001D2A00081D2A00081D2A00081D2A000864
:100060001D2A00081D2A00081D2A00081D2A000854
:100070001D2A00081D2A00081D2A00081D2A000844
:100080001D2A00081D2A00081D2A00080000000083
:100090000000000000000000000000001D2A000811
:1000A0001D2A00081D2A00081D2A00081D2A000814
:1000B0001D2A00081D2A00081D2A00081D2A000804
:1000C0001D2A00081D2A00081D2A00081D2A0008F4
:1000D0001D2A00081D2A00081D2A00080000000033
:1000E0001D2A00081D2A00081D2A00080000000023
:1000F0000000000000000000000000001D2A0008B1
:10010000000000001D2A00081D2A00081D2A000802
:1001100000000000000000000000000000000000DF
:100120001D2A00081D2A00081D2A00081D2A000893
:100130001D2A000800000000000000000000000070
:100140000000000000000000000000001D2A000860
:100150001D2A00081D2A00081D2A00081D2A000863
:100160001D2A00081D2A00080000000000000000F1
:10017000000000000000000000000000000000007F
:10018000000000001D2A0008000000000000000020
:040190001D2A00081C
:1001C000044B05481B1A062B02D9044B03B11847F0
:1001D000704700BF73000020700000200000000086
:1001E00005490648091A891001EBD171491002D05E
:1001F000034B03B1184770477000002070000020C7
:100200000000000010B5064C237843B9FFF7D8FF73
:10021000044B13B10448AFF300800123237010BDD9
:100220007000002000000000202A000808B5084BDC
:100230001BB108490848AFF300800848036813B9A8
:10024000BDE80840CCE7064B002BF9D09847F7E70C
:100250000000000074000020202A00087000002028
:100260000000000070B50F4E0F4D761BB61018BF82
:10027000002405D0013455F8043B9847A642F9D133
:100280000A4E0B4D761B02F0CBFBB61018BF0024B4
:1002900006D0013455F8043B9847A642F9D170BD09
:1002A00070BD00BFA02A0008A02A0008A42A0008E8
:1002B000A02A000870B4860746D0541E002A41D0F8
:1002C000CAB2034602E014F1FF343BD303F8012B1A
:1002D0009D07F8D1032C2ED9CDB245EA05250F2C68
:1002E00045EA054519D903F110022646103E0F2EA6
:1002F00042F8105C42F80C5C42F8085C42F8045C7E
:1003000002F11002F2D8A4F1100222F00F0204F060
:100310000F041032032C13440DD91E462246043A12
:10032000032A46F8045BFAD8221F22F003020432A3
:10033000134404F003042CB1C9B21C4403F8011B9C
:100340009C42FBD170BC704714460346C2E700BF15
:100350000CB4F0B59DB022AC029154F8042B069178
:1003600023466FF000454FF402774FF6FF7602A95F
:100370000194ADF8147004950795ADF8166000F07F
:100380008DF9029B00221A701DB0BDE8F04002B04A
:10039000704700BF0EB4F0B59CB021AB0F4953F8C5
:1003A000042B019305466FF00044086802954FF452
:1003B00002774FF6FF7602A90695ADF81470049403
:1003C0000794ADF8166000F069F9029B00221A70DC
:1003D0001CB0BDE8F04003B0704700BF0000002033
:1003E000000000000000000000000000000000000D
:1003F00000000000000000000000000000000000FD
:1004000090F800F06DE9024520F007016FF0000C54
:1004100010F0070491F820F040F049804FF00004FC
:100420006FF00700D1E9002391F840F000F10800D7
:1004300082FA4CF2A4FA8CF283FA4CF3A2FA8CF30F
:100440004BBBD1E9022382FA4CF200F10800A4FA76
:100450008CF283FA4CF3A2FA8CF3E3B9D1E90423CA
:1004600082FA4CF200F10800A4FA8CF283FA4CF301
:10047000A2FA8CF37BB9D1E9062301F1200182FABB
:100480004CF200F10800A4FA8CF283FA4CF3A2FAC1
:100490008CF3002BC6D0002A04BF04301A4612BACF
:1004A000B2FA82F2FDE8024500EBD2007047D1E9D2
:1004B000002304F00305C4F100004FEAC50514F061
:1004C000040F91F840F00CFA05F562EA05021CBF32
:1004D00063EA050362464FF00004A9E72DE9F047FF
:1004E0008E689E420C461D46174628D8804688894D
:1004F00010F4906F32D04E692368096906EB460606
:10050000A3EB010906EBD6766B1C76104B44B34285
:10051000324684BF1E463246430522D51146404628
:1005200000F054FD824680B34A46216900F008FC81
:10053000A38923F4906343F08003A38116E0086845
:100540001E462A46394600F095FCA2682368961B91
:100550002B44A66023600020BDE8F087086835467C
:10056000EFE7404600F090FD824650B1A6EB09034C
:100570000AEB09006661C4F810A02060A3602E4653
:10058000DFE72169404600F0D9FC0C23C8F80030B1
:10059000A38943F04003A3814FF0FF30BDE8F0870B
:1005A0002DE9F04F936883B09046002B70D08246BF
:1005B0000C4617688D68086842E0A38913F4906FB1
:1005C0002ED06569216905EB4505A0EB010B05EB14
:1005D000D5750BF101006D103044A8422A4684BF46
:1005E00005462A465B0538D51146504600F0EEFC1C
:1005F00000283CD05A462169019000F0A1FBA28955
:10060000019B22F4906242F08002A281A5EB0B02D2
:1006100003EB0B00656123612060A2603546B346A1
:100620005A46494600F026FCD8F80830A2682068EF
:10063000551B58449E1BA5602060C8F808603EB357
:100640007E683B460837002EFAD0AE42D3F80090C1
:10065000AB46B2D23546B346E2E7504600F014FD51
:1006600003460028D2D12169504600F067FC0C23D4
:10067000CAF80030A389002243F040034FF0FF3056
:10068000A381C8F80820C8F8042003B0BDE8F08FA3
:100690000020C8F8040003B0BDE8F08F2DE9F04F4A
:1006A00014468A899DB0150689460393824603D570
:1006B0000B69002B00F0EB8030238DF82A30237873
:1006C0007C4E0022202109928DF829100127002B51
:1006D00000F08480252B254603D117E0252B00F060
:1006E000878015F8013F002BF8D1B5EB040B75D0CE
:1006F00022465B4649465046FFF7F0FE01306DD07A
:10070000099B2A785B440993002A67D000234FF0A5
:10071000FF3201350493079306938DF853301A93F3
:10072000059204E0049A07FA03F31343049329782B
:100730000522304600F0B4FA2C46831B0135002810
:10074000F0D1049BD90644BF20228DF85320217894
:100750001A0744BF2B228DF853202A296BD0A1F110
:100760003002092A0BD8079B14F8011F03EB8303FF
:1007700002EB4303A1F13002092AF5D907932E2990
:1007800041D04D4D0322284600F08AFA38B1049B2F
:10079000401B402202FA00F0034301340493217805
:1007A00046488DF828100622013400F079FA002816
:1007B0004BD0434B03B303AB00934A46414B04A9D0
:1007C0005046AFF300808046B8F1FF3F06D0099B4A
:1007D000434409932378002B7FF47CAFB9F80C30A5
:1007E0005B0654BF09984FF0FF301DB0BDE8F08F95
:1007F000B5EB040B8AD07BE7039B073323F0070399
:1008000008330393E3E761782A2904F1010026D035
:10081000A1F130020023092A05930446B1D814F847
:10082000011F03EB830302EB4303A1F13002092A0A
:10083000F5D90593A5E7039A1168043200290392BC
:100840001FDB07916178013499E703AB00934A46B7
:100850001C4B04A9504600F0D1F88046B4E7039B36
:100860001A680592002A03F104030393B8BF4FF0FE
:10087000FF3204F10203AEBFA178A17805921C46B5
:100880007FE7494243F0020307910493DAE74021EE
:1008900000F09CFBC9F80000C9F8100018B1402313
:1008A000C9F8143008E70C23CAF800304FF0FF30C5
:1008B0009BE700BF5C2A0008642A0008682A000839
:1008C00000000000DD0400082DE9F0470C469146C9
:1008D0000A698968DDF820808A42B8BF0A46C9F8EB
:1008E000002094F8431006461F4611B10132C9F8A2
:1008F0000020236899065DD5D9F800200232C9F896
:100900000020236813F0060F19461DD1E1688A1AEA
:10091000002AD8BF194617DD04F1190A002505E0A1
:10092000E368D9F800209B1AAB420CDD0123524644
:1009300039463046C047013005F10105F0D14FF08E
:10094000FF30BDE8F087216894F84330003318BFCA
:1009500001238A060AD5E1185A1C302081F8430089
:10096000224494F8451082F84310023304F1430204
:1009700039463046C0470130E1D0236803F0060312
:10098000042B29D0A36822699342C8BF4FF0000905
:1009900030DD9B1A99441A34002501E04D4529D0D9
:1009A0000123224639463046C047013005F1010592
:1009B000F4D1C4E713F0060F08D1E168D9F800209C
:1009C0008A1A002AD8BF1946A6DCBDE794F843303E
:1009D000003318BF0123C9E7D9F80010E068A36805
:1009E0002269A0EB0109934229EAE979D1DCB9F146
:1009F000000FD0D10020BDE8F08700BF2DE9F04303
:100A00000C46097E85B06E29064617460C98984616
:100A100004F1430C55D00FD8632900F01B8100F27C
:100A2000D68000295CD0582940F0E88084F8451031
:100A30002268DFF860E213E0732900F0FD8000F225
:100A400089806F2900F0E480702940F0D780226807
:100A500042F0200222607823DFF83CE284F845303F
:100A60000368150603F1040100F1FF8055064BBF32
:100A70001B881B6801600160D00744BF42F0200260
:100A80002260002B40F09580226822F02002226034
:100A90001021002284F843206068A0600028C0F282
:100AA0008D80226822F004022260002B67D100288A
:100AB00040F08680654608296FD0ACEB05032361C2
:100AC00011E023681A0600F1D38013F0400F036889
:100AD000626903F1040101601B6814BF1A801A6087
:100AE000002365462361CDF800803B4603AA2146DA
:100AF0003046FFF7E9FE013021D02A462369394606
:100B00003046C04701301AD02368E06813F0020F66
:100B1000039B19D0C21A002A16DD04F11909002519
:100B200004E0E068039BC21AAA420DDD01234A4695
:100B300039463046C047013005F10105F1D14FF08B
:100B4000FF3005B0BDE8F0839842B8BF184605B045
:100B5000BDE8F08375295BD078294FD122687AE708
:100B60006168A1602D200029C3F1000384F84300CF
:100B700021DB22F00402DFF81CE122600A21654635
:100B8000B3FBF1F201FB123013461EF8002005F80A
:100B9000012D002BF4D108298FD12368D9078CD5DA
:100BA000626823699A4288DC302305F8013C013DE4
:100BB00083E710216DE7DFF8DCE00A21002BDED1AE
:100BC0009EF8003084F8423004F1420573E764294E
:100BD00001D0692912D122680368150603F10401C6
:100BE00052D455064BBFB3F900301B680160016059
:100BF000002BB5DBDFF89CE00A214DE7012384F8E8
:100C00004210236104F14205002384F843306AE76F
:100C100023681A0633D413F0400F036803F104026B
:100C200015BF1B881B68026002606F2914BF0A2170
:100C30000821DFF860E02CE703686268191D016095
:100C40001D680021284600F02BF800B3401B6060AF
:100C50002061D9E703681A68191D0123016004F1B6
:100C6000420584F842202361CEE701601B6803E758
:100C700003686269191D01601B681A6030E7036828
:100C80001A1D02601B68D0E701601B68B0E760684E
:100C9000DEE700BF702A0008842A00080000000078
:100CA00001F0FF01102A2BDB10F0070F08D010F81D
:100CB000013B013A8B422DD010F0070F42B3F6D121
:100CC000F0B441EA012141EA014122F007047FF03A
:100CD00000070023F0E80256083C85EA010586EA91
:100CE000010685FA47F5A3FA87F586FA47F6A5FACD
:100CF00087F68EB9EED1F0BC01F0FF0102F00702D9
:100D000032B110F8013B013A83EA010313B1F8D183
:100D10000020704701387047002D06BF3546033864
:100D2000073815F0010F07D1013015F4807F02BF9D
:100D3000013015F4C03F0130F0BC0138704700BFEE
:100D4000844641EA000313F003036DD1403A41D3D6
:100D500051F8043B40F8043B51F8043B40F8043B95
:100D600051F8043B40F8043B51F8043B40F8043B85
:100D700051F8043B40F8043B51F8043B40F8043B75
:100D800051F8043B40F8043B51F8043B40F8043B65
:100D900051F8043B40F8043B51F8043B40F8043B55
:100DA00051F8043B40F8043B51F8043B40F8043B45
:100DB00051F8043B40F8043B51F8043B40F8043B35
:100DC00051F8043B40F8043B51F8043B40F8043B25
:100DD000403ABDD2303211D351F8043B40F8043BC5
:100DE00051F8043B40F8043B51F8043B40F8043B05
:100DF00051F8043B40F8043B103AEDD20C3205D3D5
:100E000051F8043B40F8043B043AF9D2043208D0CC
:100E1000D2071CBF11F8013B00F8013B01D30B883E
:100E200003806046704700BF082A13D38B078DD01C
:100E300010F003038AD0C3F10403D21ADB071CBFEE
:100E400011F8013B00F8013B80D331F8023B20F858
:100E5000023B7BE7043AD9D3013A11F8013B00F891
:100E6000013BF9D20B7803704B7843708B78837019
:100E7000604670478842F0B50DD98B1898420AD267
:100E80008418002A51D0224613F8014D02F8014D72
:100E90009942F9D1F0BD0F2A48D941EA00039B07D6
:100EA00046D100F1100401F11003154653F8106CFF
:100EB00044F8106C53F80C6C44F80C6C53F8086C44
:100EC00044F8086C103D53F8046C44F8046C0F2D82
:100ED00003F1100304F11004E8D8A2F1100323F089
:100EE0000F0302F00F0E1033BEF1030F1944034439
:100EF00021D91E1F0D467446043C55F8047B46F864
:100F0000047F032CF8D8AEF1040424F00304043465
:100F10002144234402F0030262B1013B0A4411F868
:100F2000014B03F8014F8A42F9D1F0BD0346F3E7C4
:100F30000346F2E7F0BD7246EEE700BF91B151F80B
:100F4000043C0439002BB8BFC9181F4B1A68FAB10A
:100F50008A4230B40AD908680C18A24226D04A60E6
:100F6000196030BC70478B4203D81A465368002B77
:100F7000F9D1146815198D420DD006D808680C18DF
:100F80009C4219D04B605160EBE70C230360E8E70B
:100F90004A601960704709680C441119994214603D
:100FA000DFD10ACB0C4453601460DAE7146852684E
:100FB0004A6020440860D3E71C685B684B602044AB
:100FC00008605160CDE700BF8C00002070B5CC1CDC
:100FD00024F0030408340C2C38BF0C24002C0646E3
:100FE0003BDBA14239D8274D296851B10A68121B51
:100FF00004D436E01A68121B1AD519464B68002B28
:10100000F8D16968002937D02146304600F064F8ED
:10101000431C22D0C31C23F00305A84205D0291A83
:10102000304600F059F8013017D02C602B4604E010
:101030000B2A0DD91A6013441C6003F10B0020F039
:1010400007001A1D821A02D05142995070BD70BD1E
:101050008B420ED05A684A60EFE70C2333600020C1
:1010600070BD0B2A03D84A680B462A60E5E70B4699
:10107000E0E70A460B46F8E7304600F02DF86860D6
:10108000C2E700BF8C000020F8B51446F9B1C2B128
:1010900006460D4600F032F8844201D82846F8BDD5
:1010A00021463046FFF792FF074670B12246294697
:1010B000FFF746FE294630463D46FFF73FFF2846EC
:1010C000F8BDFFF73BFF2546E8E70546E6E7114692
:1010D000BDE8F840FFF77ABF38B5074C0023054656
:1010E0000846236000F014F8431C00D038BD236884
:1010F000002BFBD02B6038BD2401002051F8040CDC
:101100000028A0F10400BCBF0B58C018704700BFF6
:10111000044A05491368002B08BF0B4618441060A9
:1011200018467047940000202801002053B94AB99E
:10113000002908BF00281CBF4FF0FF314FF0FF30DF
:1011400000F07AB9ADF1080C6DE904CE00F006F8B4
:10115000DDF804E0DDE9022304B070472DE9F04733
:101160008C460D460446089E002B51D18A421746F4
:101170006DD9B2FA82FEBEF1000F0BD0CEF1200C79
:1011800001FA0EF520FA0CFC02FA0EF74CEA050CF7
:1011900000FA0EF44FEA174A250CBCFBFAF81FFAC6
:1011A00087F90AFB18CC45EA0C4508FB09F3AB426A
:1011B0000AD9ED1908F1FF3280F02381AB4240F2E9
:1011C0002081A8F102083D44ED1AA4B2B5FBFAF063
:1011D0000AFB105544EA054400FB09F9A14509D969
:1011E000E41900F1FF3380F00A81A14540F2078144
:1011F00002383C44A4EB090440EA08400021002ED8
:1012000061D024FA0EF4002334607360BDE8F087E7
:101210008B4207D9002E54D0002186E821000846D1
:10122000BDE8F087B3FA83F1002940F08E80AB422D
:1012300002D3824200F2FA80841A65EB0305012092
:10124000AC46002E3FD086E81010BDE8F08712B9FA
:101250000127B7FBF2F7B7FA87FEBEF1000F34D1D2
:10126000EB1B3A0C1FFA87FC0121B3FBF2F8250CAB
:1012700002FB183345EA03450CFB08F3AB4207D9E0
:10128000ED1908F1FF3002D2AB4200F2D180804666
:10129000ED1AA3B2B5FBF2F002FB105543EA054488
:1012A0000CFB00FCA44507D9E41900F1FF3302D27E
:1012B000A44500F2B8801846A4EB0C0440EA0840AC
:1012C0009DE731463046BDE8F087CEF1200405FAAF
:1012D0000EF307FA0EF720FA04F83A0C25FA04F494
:1012E00048EA0308B4FBF2F14FEA184502FB114447
:1012F0001FFA87FC45EA044501FB0CF3AB4200FAF8
:101300000EF409D9ED1901F1FF3080F08A80AB426B
:1013100040F2878002393D44EB1A1FFA88F5B3FB8F
:10132000F2F002FB103345EA034500FB0CF3AB423D
:1013300007D9ED1900F1FF386FD2AB426DD90238F1
:101340003D44EB1A40EA01418FE7C1F1200722FA40
:1013500007F88B4005FA01F448EA030320FA07FE78
:101360004FEA134CFD404EEA040EB5FBFCF94FEA80
:101370001E440CFB19551FFA83F844EA054509FB86
:1013800008F4AC4202FA01F200FA01FA08D9ED18A9
:1013900009F1FF3043D2AC4241D9A9F102091D4401
:1013A0002D1B1FFA8EFEB5FBFCF00CFB10554EEA10
:1013B000054400FB08F8A04507D9E41800F1FF3503
:1013C00029D2A04527D902381C4440EA0940A4EBA1
:1013D0000804A0FB02894C45C6464D4615D312D0E1
:1013E00056B1BAEB0E0364EB050404FA07F7CB40E1
:1013F0001F43CC40376074600021BDE8F087184679
:10140000F8E69046E0E6C245EAD2B8EB020E69EB98
:1014100003050138E4E72846D7E7404691E78146CF
:10142000BEE7014678E702383C4445E7084608E74E
:10143000A8F102083D442BE7704700BF30B58BB0E0
:101440000024059406940794089409940194234B6E
:101450001A6B42F004021A631A6B02F00402019242
:10146000019A02941A6B42F080021A631A6B02F01E
:1014700080020292029A03941A6B42F001021A63EC
:101480001A6B02F001020392039A04941A6B42F061
:1014900002021A631B6B03F002030493049B104DBA
:1014A00022464FF48461284600F0FEFF4FF40053BB
:1014B00005930C4B0693079405A90B4800F01AFFFF
:1014C0004FF484630593012306930794089405A9B8
:1014D000284600F00FFF0BB030BD00BF00380240BF
:1014E00000000240000021100008024070B584B0E6
:1014F00000250095019502950395104C104B236033
:101500004FF480336360A5602561257684F8205010
:10151000E5620C4BA362E5600126E66184F8305079
:101520006661204600F0E2F9009501960295694651
:10153000204600F0E1FA04B070BD00BF9800002022
:10154000002001400100000F08B50848084B036067
:101550004FF4E133436000238360C36003610C22D6
:1015600042618361C36101F081F908BDE0000020A0
:101570000044004030B595B03022002108A8FEF7A5
:1015800099FE00240394049405940694079401940E
:101590001B4B1A6C42F080521A641B6C03F0805390
:1015A0000193019B0294174A136823F4404343F4C8
:1015B00000431360136803F440430293029B022527
:1015C000089501230B9310230C930E950F94109301
:1015D0004FF4A8731193042312930723139308A8BD
:1015E00000F052FB0F230393049505944FF48053AE
:1015F00006930794294603A800F0A6FD15B030BD58
:10160000003802400070004030B585B000F0D2FFD5
:10161000FFF7B0FFFFF712FFFFF768FFFFF794FF38
:10162000164D01224FF48061284600F03DFF144C16
:10163000204600F087F94FF0FF31204600F0FEF918
:10164000204600F056FA044600224FF480612846F6
:1016500000F02AFFA2B20B4901A8FEF79BFE01A8E9
:10166000FEF7CEFE4FF0FF3382B201A9064801F02B
:101670002CF9012000F0CAFFD2E700BF00000240B1
:1016800098000020382A0008E00000207047FEE79C
:10169000FEE7FEE7FEE770477047704708B500F0C9
:1016A000A3FF08BD00B583B0002100910C4B5A6C1C
:1016B00042F480425A645A6C02F480420092009ACA
:1016C00001911A6C42F080521A641B6C03F0805333
:1016D0000193019B072000F0EDFE03B05DF804FBD1
:1016E0000038024000B589B00023039304930593AA
:1016F00006930793026803F1804303F590339A42FF
:1017000002D009B05DF804FB0021019103F58C3390
:101710005A6C42F480725A645A6C02F480720192DC
:10172000019A02911A6B42F001021A631B6B03F0DB
:1017300001030293029B012303930323049303A950
:10174000014800F0D7FDDCE70000024000B589B099
:101750000023039304930593069307930268144BA5
:101760009A4202D009B05DF804FB0021019103F513
:10177000FA331A6C42F400321A641A6C02F4003222
:101780000192019A02911A6B42F001021A631B6BDB
:1017900003F001030293029B0C230393022304939F
:1017A0000723079303A9034800F0A4FDDAE700BF6D
:1017B00000440040000002404A4B5A6822F4403284
:1017C0005A605A6841680A435A600268536823F4B1
:1017D0008073536002685368016943EA01235360D0
:1017E0000268536823F0407353600268536881684D
:1017F0000B4353600268936823F4006393600268AC
:101800009368C1680B439360826A374B9A424BD00E
:101810000268936823F07063936002689368816A3A
:101820000B4393600268936823F04053936002680F
:101830009368C16A0B4393600268936823F00203C4
:10184000936002689368017E43EA4103936090F8D5
:101850002030002B33D10268536823F400635360B7
:101860000268D36A23F47003D3620168CB6AC26949
:10187000013A43EA0253CB620268936823F400738F
:1018800093600268936890F8301043EA41239360B4
:101890000268936823F480639360026893684169E7
:1018A00043EA8123936070470268936823F0706372
:1018B00093600268936823F040539360BCE702682A
:1018C000536843F4006353600268536823F4604331
:1018D000536001684B68426A013A43EA42334B6005
:1018E000BEE700BF002301400100000F38B310B570
:1018F0000446036C43B1236C13F0100F0BD001208E
:10190000002384F83C3010BDFFF7ECFE0023636435
:1019100084F83C30EFE7236C23F4885323F0020370
:1019200043F0020323642046FFF746FF0020606473
:10193000236C23F0030343F001032364E0E7012059
:101940007047000082B00023019390F83C30012BD7
:1019500063D0012380F83C3003689A6812F0010FCD
:1019600013D19A6842F001029A60304B1B68304AEA
:10197000A2FB03239B0C03EB4303019302E0019BB7
:10198000013B0193019B002BF9D10268936813F08E
:10199000010F45D0036C23F4E06323F0010343F40B
:1019A00080730364536813F4806F05D0036C23F4D1
:1019B000405343F480530364036C13F4805F19D0E5
:1019C000436C23F006034364002380F83C306FF03F
:1019D00022031360174B5B6813F01F0F0DD10368D0
:1019E0009A6812F0405F1DD19A6842F080429A6076
:1019F000002013E000234364E6E703680E4A9342A5
:101A000001D000200AE09A6812F0405F0CD19A6879
:101A100042F080429A60002000E0022002B070474D
:101A20000020FBE70020F9E70020F7E76C0000202A
:101A300083DE1B43002301400020014003689A68B5
:101A400012F4806F03D09B6813F4807F1CD170B5B3
:101A50000D46044600F0D4FD064623681A6812F0CD
:101A6000020F1AD1B5F1FF3FF7D025B100F0C8FD44
:101A7000801B8542F1D2236C43F0040323640023CE
:101A800084F83C30032070BD036C43F020030364F2
:101A9000002380F83C30012070476FF012021A607A
:101AA000236C43F40073236423689A6812F0405F48
:101AB00017D1227EBAB9DA6A12F4700F03D09B688C
:101AC00013F4806F11D1236C23F480732364236C8F
:101AD00013F4805F0BD1236C43F0010323640020D7
:101AE00070BD002070BD002070BD002070BD0020C2
:101AF00070BD0368D86C704730B482B00023019386
:101B000090F83C30012B00F0B780012380F83C3086
:101B10000B68092B3ED90568EA689BB203EB4303C7
:101B20001E3B072404FA03F322EA0303EB60056873
:101B3000EA688C680B8803EB43031E3B04FA03F34B
:101B40001343EB604B68062B3AD805686A6B03EBCE
:101B50008303053B1F2404FA03F322EA03036B63A8
:101B600005686A6B4B6803EB8303053B0C8804FA3A
:101B700003F313436B630268404B9A4250D00268F0
:101B80003E4B9A4255D0002380F83C30184602B0B4
:101B900030BC704705682A699BB203EB43030724F6
:101BA00004FA03F322EA03032B6105682A698C68AF
:101BB0000B8803EB430304FA03F313432B61C1E7E0
:101BC0000C2B16D805682A6B03EB8303233B1F24D9
:101BD00004FA03F322EA03032B6305682A6B4B68BC
:101BE00003EB8303233B0C8804FA03F313432B63B7
:101BF000C1E70568EA6A03EB8303413B1F2404FA4B
:101C000003F322EA0303EB620568EA6A4B6803EB1D
:101C10008303413B0C8804FA03F31343EB62AAE706
:101C20000B68122BABD1164A536843F48003536000
:101C3000A5E70B68103B012BA5D8114A536843F464
:101C4000000353600B68102B9DD10E4B1B6802F1F3
:101C5000467202F52E3202F28332A2FB03239B0C62
:101C600003EB83035A00019202E0019B013B0193C5
:101C7000019B002BF9D186E7022088E70020014074
:101C8000002301406C000020002800F0E48170B5C2
:101C900082B00446036813F0010F3BD0A74B9B684A
:101CA00003F00C03042B2CD0A44B9B6803F00C0313
:101CB000082B21D06368B3F5803F4FD0B3F5A02F38
:101CC00052D09E4B1A6822F480321A601A6822F4AD
:101CD00080221A606368002B50D000F091FC05460A
:101CE000964B1B6813F4003F14D100F089FC401B95
:101CF0006428F5D90320B3E1904B5B6813F4800F9F
:101D0000D8D08E4B1B6813F4003F03D06368002BC0
:101D100000F0A381236813F0020F55D0874B9B6816
:101D200013F00C0F3ED0854B9B6803F00C03082B7F
:101D300033D0E368002B68D00122814B1A6000F099
:101D40005FFC05467D4B1B6813F0020F54D100F079
:101D500057FC401B0228F5D9032081E1774A13681C
:101D600043F480331360B5E7744B1A6842F4802261
:101D70001A601A6842F480321A60ABE700F040FC47
:101D800005466E4B1B6813F4003FC3D000F038FCCF
:101D9000401B6428F5D9032062E1684B5B6813F4AB
:101DA000800FC6D1654B1B6813F0020F04D0E368A7
:101DB000012B01D0012053E1604A136823F0F8039E
:101DC000216943EAC1031360236813F0080F40D070
:101DD000636963B301225B4B1A6000F011FC054696
:101DE000564B5B6F13F0020F33D100F009FC401B20
:101DF0000228F5D9032033E1504A136823F0F80391
:101E0000216943EAC1031360DEE700224C4B1A60EC
:101E100000F0F6FB0546494B1B6813F0020FD3D0C8
:101E200000F0EEFB401B0228F5D9032018E1002248
:101E3000444B1A6000F0E4FB0546404B5B6F13F027
:101E4000020F06D000F0DCFB401B0228F5D903206E
:101E500006E1236813F0040F79D0384B1B6C13F0A4
:101E6000805F33D100230193344B1A6C42F08052CF
:101E70001A641B6C03F080530193019B0125324BC4
:101E80001B6813F4807F23D0A368012B34D0052B6B
:101E900038D02A4B1A6F22F001021A671A6F22F00B
:101EA00004021A67A368002B36D000F0A9FB06468F
:101EB000224B1B6F13F0020F48D100F0A1FB801BD7
:101EC00041F288339842F3D90320C9E00025D6E7D0
:101ED0001D4A136843F48073136000F091FB0646BB
:101EE000194B1B6813F4807FCED100F089FB801B57
:101EF0000228F5D90320B3E0104A136F43F0010321
:101F00001367CFE70D4B1A6F42F004021A671A6F7E
:101F100042F001021A67C5E700F072FB0646074B64
:101F20001B6F13F0020F11D000F06AFB801B41F20F
:101F300088339842F3D9032092E000BF0038024072
:101F400000004742800E474200700040EDB9A3698F
:101F5000002B00F08480454A926802F00C02082AA7
:101F600051D0022B17D00022414B1A6000F048FBE1
:101F700004463E4B1B6813F0007F42D000F040FB4C
:101F8000001B0228F5D903206AE0384A136C23F0BD
:101F900080531364DBE70022354B1A6000F030FBFE
:101FA0000546324B1B6813F0007F06D000F028FB7B
:101FB000401B0228F5D9032052E0E369226A13434B
:101FC000626A43EA8213A26A5208013A43EA024370
:101FD000E26A43EA0263254A53600122244B1A60F5
:101FE00000F00EFB0446214B1B6813F0007F06D166
:101FF00000F006FB001B0228F5D9032030E000208A
:102000002EE000202CE0012B2CD0184B5B6803F451
:102010008001E269914201D0012021E003F03F02FA
:10202000216A8A4201D001201AE0616A47F6C07233
:102030001A408A4201D0012012E003F44032A16A22
:102040008A4201D001200BE003F07063E26A934200
:102050000AD0012004E001207047012000E00020A8
:1020600002B070BD0120FBE70020F9E70038024014
:1020700060004742F8B5314B9B6803F00C03042B1A
:1020800059D0082B01D02E48F8BD2C4B5A6802F0CD
:102090003F025B6813F4800F2AD0284B5B68C3F3C0
:1020A00088131E4600275C010025E41A65EB07052E
:1020B000A90141EA9461A001001B61EB0501CB007D
:1020C00043EA5073C400A01943EB07014B0243EAF3
:1020D000D0534402204619460023FFF727F8174B38
:1020E0005B68C3F3014301335B00B0FBF3F0F8BD61
:1020F000124B5B68C3F388131E4600275C01002562
:10210000E41A65EB0705A90141EA9461A001001BEF
:1021100061EB0501CB0043EA5073C400A01943EB07
:1021200007018B0243EA905384022046194600239C
:10213000FEF7FCFFD3E70348F8BD00BF00380240BC
:102140000024F40000127A00002800F09E8070B590
:102150000446504B1B6803F00F038B4209D2CBB2ED
:102160004C4A1370136803F00F03994201D0012009
:1021700070BD236813F0020F17D013F0040F04D0C2
:10218000454A936843F4E0539360236813F0080FC3
:1021900004D0414A936843F4604393603E4A936895
:1021A00023F0F003A068034393600D46236813F007
:1021B000010F32D06368012B21D09A1E012A25D944
:1021C000354A126812F0020F61D033498A6822F052
:1021D000030213438B6000F013FA06462E4B9B68F4
:1021E00003F00C036268B3EB820F16D000F008FA1C
:1021F000801B41F288339842F0D9032070BD264AF3
:10220000126812F4003FE0D1012070BD224A12682A
:1022100012F0007FD9D1012070BD1E4B1B6803F066
:102220000F039D4209D2EAB21A4B1A701B6803F0E1
:102230000F039D4201D0012070BD236813F0040FED
:1022400006D0154A936823F4E053E1680B4393608A
:10225000236813F0080F07D00F4A936823F46043F4
:10226000216943EAC1039360FFF704FF0A4B9B68AF
:10227000C3F30313094AD35CD840094B1860094BD8
:10228000186800F071F9002070BD0120704701202E
:1022900070BD00BF003C024000380240402A0008E8
:1022A0006C00002068000020014B1868704700BFD8
:1022B0006C00002008B5FFF7F7FF044B9B68C3F3E1
:1022C0008223034AD35CD84008BD00BF00380240D7
:1022D000502A000808B5FFF7E7FF044B9B68C3F3DB
:1022E0004233034AD35CD84008BD00BF00380240E7
:1022F000502A000800230F2B00F2CD80F0B583B0E8
:1023000095E085684FEA430E032707FA0EF725EAA2
:102310000705CE6806FA0EF635438560456825EA5E
:1023200002024D68C5F300159D402A434260C6680D
:102330005F000322BA40D24316408D68BD402E4351
:10234000C6604D68022D00F08480122D00F081805F
:1023500005682A404D6805F00305BD402A43026028
:102360004A6812F0805F5FD0002201924A4A556CA1
:1023700045F480455564526C02F480420192019A02
:102380009D08AE1C454A52F8262003F00306B6000D
:102390000F27B74022EA0702414FB84271D007F534
:1023A0008067B8426FD007F58067B8426DD007F5F7
:1023B0008067B8426BD007F58067B8425FD00727C7
:1023C00007FA06F632430235344E46F82520354AE0
:1023D0001568E24305EA02064F6817F4803F01D012
:1023E00044EA05062F4D2E606D6802EA05064F6827
:1023F00017F4003F01D044EA05062A4D6E60AD682F
:1024000002EA05064F6817F4801F01D044EA05066A
:10241000244DAE60ED682A404E6816F4001F01D0CE
:1024200044EA05021F4CE26001330F2B31D8012230
:102430009A400C681440A242F6D14D686E1E012EDF
:102440007FF65FAF112D3FF45CAF122D7FF46FAFBD
:1024500057E74FEAD30E0EF1080E50F82E5003F056
:10246000070C4FEA8C0C0F2606FA0CF625EA060537
:102470000E6906FA0CF6354340F82E5068E704273B
:102480009EE700279CE701279AE7022798E70327A2
:1024900096E703B0F0BD70470038024000380140B5
:1024A00000000240003C014012B9090481617047FC
:1024B00081617047074AD36823F4E0631B041B0C57
:1024C000000200F4E060184340F0BF6040F40030C8
:1024D000D060704700ED00E030B4164BDB68C3F30A
:1024E0000223C3F10704042C28BF04241D1D062D5C
:1024F00017D9033B012505FA04F4013C214099401A
:1025000005FA03F3013B1340194300280BDB0901D3
:10251000C9B200F1604000F5614080F8001330BCA2
:1025200070470023E6E700F00F000901C9B2024B33
:102530001954F4E700ED00E014ED00E00138B0F1CB
:10254000807F0AD2064B5860F021064A82F8231099
:102550000020986007221A6070470120704700BF72
:1025600010E000E000ED00E010B504460E4B1878D6
:102570004FF47A73B3FBF0F30C4A1068B0FBF3F03E
:10258000FFF7DCFF68B90F2C01D9012010BD002234
:1025900021464FF0FF30FFF79FFF054B1C600020E6
:1025A00010BD012010BD00BF640000206C000020A1
:1025B0006800002008B50B4B1A6842F400721A60DC
:1025C0001A6842F480621A601A6842F480721A60D3
:1025D0000320FFF76FFF0020FFF7C6FFFFF762F849
:1025E000002008BD003C0240034A1168034B1B78E1
:1025F0000B441360704700BF2001002064000020DE
:10260000014B1868704700BF2001002038B5044610
:10261000FFF7F6FF0546B4F1FF3F02D0044B1B78ED
:102620001C44FFF7EDFF401B8442FAD838BD00BFC1
:1026300064000020F8B504460268136923F440538F
:10264000C1680B43136183680269134342691343F2
:10265000C26913430168CA6822F4164222F00C02D0
:102660001343CB600268536923F4407381690B43C1
:102670005361C369B3F5004F34D00368604A934295
:1026800000F0928002F58062934200F08D80FFF7A7
:1026900011FE25680021061841EB010736184F414D
:1026A000FB0043EA5673F20016461F4663689A0021
:1026B0009B0F80197941FEF739FD524CA4FB003283
:1026C0005109642202FB110213013233A4FB0323DC
:1026D0005B0903F0F00202EB011203F00F03134455
:1026E000AB60F8BD0368464A934230D002F5806281
:1026F00093422CD0FFF7DEFD25680021061841EB40
:10270000010736184F41FB0043EA5673F2001646A4
:102710001F466268002392185B4180197941FEF7D9
:1027200005FD384CA4FB00325109642202FB110262
:10273000D3003233A4FB03235B095A0002F4F8727E
:1027400002EB011203F007031344AB60F8BDFFF77F
:10275000C1FD25680021061841EB010736184F41DD
:10276000FB0043EA5673F20016461F4662680023D8
:1027700092185B4180197941FEF7D8FC214CA4FBEB
:1027800000325109642202FB1102D3003233A4FB50
:1027900003235B095A0002F4F87202EB011203F002
:1027A00007031344AB60F8BDFFF794FD25680021D3
:1027B000061841EB010736184F41FB0043EA5673F8
:1027C000F20016461F4663689A009B0F80197941F4
:1027D000FEF7ACFC0B4CA4FB00325109642202FB57
:1027E000110213013233A4FB03235B0903F0F0024F
:1027F00002EB011203F00F031344AB60F8BD00BFFE
:10280000001001401F85EB512DE9F04105460F46B0
:1028100016469846069C2B681B6837EA03030CBFD4
:1028200001230023B3421ED1B4F1FF3FF3D02CB1FA
:10283000FFF7E6FEA0EB08008442ECD22A68D368DA
:1028400023F4D073D3602A68536923F001035361E2
:10285000202385F8393085F83A30002385F8383060
:102860000320BDE8F0810020BDE8F08158B310B529
:10287000044690F839300BB3242384F839302268A9
:10288000D36823F40053D3602046FFF7D3FE2268B9
:10289000136923F4904313612268536923F02A03D8
:1028A00053612268D36843F40053D3600020E0638F
:1028B000202384F8393084F83A3010BD80F838305D
:1028C000FEF744FFD8E7012070472DE9F04383B0BD
:1028D0001E4690F83930DBB2202B04D00223184674
:1028E00003B0BDE8F08304460D469046002956D05B
:1028F000002A56D090F83830012B01D10223EEE7A0
:10290000012380F838304FF00009C0F83C902123B3
:1029100080F83930FFF774FE0746A4F82480A4F845
:10292000268084F8389010E000963B4600228021F3
:102930002046FFF769FF002835D122682B88C3F3B2
:10294000080353602369CBB90235E38C9BB2BBB15A
:10295000E38C9BB2013B9BB2E384A368B3F5805F39
:10296000E2D000963B46002280212046FFF74CFF34
:10297000D8B923682A785A600135E6E70135E4E7DB
:1029800000963B46002240212046FFF73DFF0346CC
:1029900008B10323A3E7202284F839209FE701230D
:1029A0009DE701239BE7032399E7032397E70000B3
:1029B000054BD3F8882042F47002C3F888204FF00A
:1029C00000629A60704700BF00ED00E0DFF834D08D
:1029D000002103E00C4B5B58435004310B480C4B77
:1029E00042189A42F6D30B4A02E0002342F8043B15
:1029F000094B9A42F9D3FFF7DBFFFDF733FCFEF7F3
:102A000003FE704700800120A82A00080000002073
:102A1000700000207000002028010020FEE7000068
:102A2000F8B500BFF8BC08BC9E467047F8B500BFBB
:082A3000F8BC08BC9E4670478B
:102A38002568750D0A000000000000000000000075
:102A4800010203040607080900000000010203044C
:102A580043000000232D302B20000000686C4C0040
:102A680065666745464700003031323334353637BE
:102A78003839414243444546000000003031323382
:102A880034353637383961626364656600000000A2
:082A9800C4E6FF7F010000000D
:042AA0002D020008FB
:042AA400050200081F
:102AA80004000020000000000000000000000000FA
:102AB800000000000000000000000000000000000E
:102AC80000000000582A0008000000000000000074
:102AD80000000000000000000000000000000000EE
:102AE80000000000000000000000000000000000DE
:102AF80000000000000000000000000000000000CE
:102B08000000000001000000100000000024F40094
:04000005080029CDF9
:00000001FF
